{
  "contractName": "FiestaERC721",
  "abi": [
    {
      "inputs": [],
      "stateMutability": "nonpayable",
      "type": "constructor"
    },
    {
      "anonymous": false,
      "inputs": [
        {
          "indexed": true,
          "internalType": "address",
          "name": "owner",
          "type": "address"
        },
        {
          "indexed": true,
          "internalType": "address",
          "name": "approved",
          "type": "address"
        },
        {
          "indexed": true,
          "internalType": "uint256",
          "name": "tokenId",
          "type": "uint256"
        }
      ],
      "name": "Approval",
      "type": "event"
    },
    {
      "anonymous": false,
      "inputs": [
        {
          "indexed": true,
          "internalType": "address",
          "name": "owner",
          "type": "address"
        },
        {
          "indexed": true,
          "internalType": "address",
          "name": "operator",
          "type": "address"
        },
        {
          "indexed": false,
          "internalType": "bool",
          "name": "approved",
          "type": "bool"
        }
      ],
      "name": "ApprovalForAll",
      "type": "event"
    },
    {
      "anonymous": false,
      "inputs": [
        {
          "indexed": true,
          "internalType": "address",
          "name": "from",
          "type": "address"
        },
        {
          "indexed": true,
          "internalType": "address",
          "name": "to",
          "type": "address"
        },
        {
          "indexed": true,
          "internalType": "uint256",
          "name": "tokenId",
          "type": "uint256"
        }
      ],
      "name": "Transfer",
      "type": "event"
    },
    {
      "inputs": [
        {
          "internalType": "address",
          "name": "to",
          "type": "address"
        },
        {
          "internalType": "uint256",
          "name": "tokenId",
          "type": "uint256"
        }
      ],
      "name": "approve",
      "outputs": [],
      "stateMutability": "nonpayable",
      "type": "function"
    },
    {
      "inputs": [
        {
          "internalType": "address",
          "name": "owner",
          "type": "address"
        }
      ],
      "name": "balanceOf",
      "outputs": [
        {
          "internalType": "uint256",
          "name": "",
          "type": "uint256"
        }
      ],
      "stateMutability": "view",
      "type": "function",
      "constant": true
    },
    {
      "inputs": [],
      "name": "baseURI",
      "outputs": [
        {
          "internalType": "string",
          "name": "",
          "type": "string"
        }
      ],
      "stateMutability": "view",
      "type": "function",
      "constant": true
    },
    {
      "inputs": [
        {
          "internalType": "uint256",
          "name": "tokenId",
          "type": "uint256"
        }
      ],
      "name": "getApproved",
      "outputs": [
        {
          "internalType": "address",
          "name": "",
          "type": "address"
        }
      ],
      "stateMutability": "view",
      "type": "function",
      "constant": true
    },
    {
      "inputs": [
        {
          "internalType": "address",
          "name": "owner",
          "type": "address"
        },
        {
          "internalType": "address",
          "name": "operator",
          "type": "address"
        }
      ],
      "name": "isApprovedForAll",
      "outputs": [
        {
          "internalType": "bool",
          "name": "",
          "type": "bool"
        }
      ],
      "stateMutability": "view",
      "type": "function",
      "constant": true
    },
    {
      "inputs": [],
      "name": "name",
      "outputs": [
        {
          "internalType": "string",
          "name": "",
          "type": "string"
        }
      ],
      "stateMutability": "view",
      "type": "function",
      "constant": true
    },
    {
      "inputs": [
        {
          "internalType": "uint256",
          "name": "tokenId",
          "type": "uint256"
        }
      ],
      "name": "ownerOf",
      "outputs": [
        {
          "internalType": "address",
          "name": "",
          "type": "address"
        }
      ],
      "stateMutability": "view",
      "type": "function",
      "constant": true
    },
    {
      "inputs": [
        {
          "internalType": "address",
          "name": "from",
          "type": "address"
        },
        {
          "internalType": "address",
          "name": "to",
          "type": "address"
        },
        {
          "internalType": "uint256",
          "name": "tokenId",
          "type": "uint256"
        }
      ],
      "name": "safeTransferFrom",
      "outputs": [],
      "stateMutability": "nonpayable",
      "type": "function"
    },
    {
      "inputs": [
        {
          "internalType": "address",
          "name": "from",
          "type": "address"
        },
        {
          "internalType": "address",
          "name": "to",
          "type": "address"
        },
        {
          "internalType": "uint256",
          "name": "tokenId",
          "type": "uint256"
        },
        {
          "internalType": "bytes",
          "name": "_data",
          "type": "bytes"
        }
      ],
      "name": "safeTransferFrom",
      "outputs": [],
      "stateMutability": "nonpayable",
      "type": "function"
    },
    {
      "inputs": [
        {
          "internalType": "address",
          "name": "operator",
          "type": "address"
        },
        {
          "internalType": "bool",
          "name": "approved",
          "type": "bool"
        }
      ],
      "name": "setApprovalForAll",
      "outputs": [],
      "stateMutability": "nonpayable",
      "type": "function"
    },
    {
      "inputs": [
        {
          "internalType": "bytes4",
          "name": "interfaceId",
          "type": "bytes4"
        }
      ],
      "name": "supportsInterface",
      "outputs": [
        {
          "internalType": "bool",
          "name": "",
          "type": "bool"
        }
      ],
      "stateMutability": "view",
      "type": "function",
      "constant": true
    },
    {
      "inputs": [],
      "name": "symbol",
      "outputs": [
        {
          "internalType": "string",
          "name": "",
          "type": "string"
        }
      ],
      "stateMutability": "view",
      "type": "function",
      "constant": true
    },
    {
      "inputs": [
        {
          "internalType": "uint256",
          "name": "index",
          "type": "uint256"
        }
      ],
      "name": "tokenByIndex",
      "outputs": [
        {
          "internalType": "uint256",
          "name": "",
          "type": "uint256"
        }
      ],
      "stateMutability": "view",
      "type": "function",
      "constant": true
    },
    {
      "inputs": [
        {
          "internalType": "address",
          "name": "owner",
          "type": "address"
        },
        {
          "internalType": "uint256",
          "name": "index",
          "type": "uint256"
        }
      ],
      "name": "tokenOfOwnerByIndex",
      "outputs": [
        {
          "internalType": "uint256",
          "name": "",
          "type": "uint256"
        }
      ],
      "stateMutability": "view",
      "type": "function",
      "constant": true
    },
    {
      "inputs": [
        {
          "internalType": "uint256",
          "name": "tokenId",
          "type": "uint256"
        }
      ],
      "name": "tokenURI",
      "outputs": [
        {
          "internalType": "string",
          "name": "",
          "type": "string"
        }
      ],
      "stateMutability": "view",
      "type": "function",
      "constant": true
    },
    {
      "inputs": [],
      "name": "totalSupply",
      "outputs": [
        {
          "internalType": "uint256",
          "name": "",
          "type": "uint256"
        }
      ],
      "stateMutability": "view",
      "type": "function",
      "constant": true
    },
    {
      "inputs": [
        {
          "internalType": "address",
          "name": "from",
          "type": "address"
        },
        {
          "internalType": "address",
          "name": "to",
          "type": "address"
        },
        {
          "internalType": "uint256",
          "name": "tokenId",
          "type": "uint256"
        }
      ],
      "name": "transferFrom",
      "outputs": [],
      "stateMutability": "nonpayable",
      "type": "function"
    },
    {
      "inputs": [
        {
          "internalType": "address",
          "name": "_receiver",
          "type": "address"
        },
        {
          "internalType": "uint256",
          "name": "_idTicket",
          "type": "uint256"
        }
      ],
      "name": "approveNewOwner",
      "outputs": [],
      "stateMutability": "nonpayable",
      "type": "function"
    },
    {
      "inputs": [
        {
          "internalType": "address",
          "name": "_marketAddress",
          "type": "address"
        }
      ],
      "name": "createTicket",
      "outputs": [
        {
          "internalType": "uint256",
          "name": "",
          "type": "uint256"
        }
      ],
      "stateMutability": "nonpayable",
      "type": "function"
    }
  ],
  "bytecode": "0x60806040523480156200001157600080fd5b506040518060400160405280600981526020017f4669657374614e465400000000000000000000000000000000000000000000008152506040518060400160405280600481526020017f4653544e00000000000000000000000000000000000000000000000000000000815250620000966301ffc9a760e01b6200011860201b60201c565b8160069080519060200190620000ae92919062000221565b508060079080519060200190620000c792919062000221565b50620000e06380ac58cd60e01b6200011860201b60201c565b620000f8635b5e139f60e01b6200011860201b60201c565b6200011063780e9d6360e01b6200011860201b60201c565b5050620002d0565b63ffffffff60e01b817bffffffffffffffffffffffffffffffffffffffffffffffffffffffff19161415620001b5576040517f08c379a000000000000000000000000000000000000000000000000000000000815260040180806020018281038252601c8152602001807f4552433136353a20696e76616c696420696e746572666163652069640000000081525060200191505060405180910390fd5b6001600080837bffffffffffffffffffffffffffffffffffffffffffffffffffffffff19167bffffffffffffffffffffffffffffffffffffffffffffffffffffffff1916815260200190815260200160002060006101000a81548160ff02191690831515021790555050565b828054600181600116156101000203166002900490600052602060002090601f016020900481019282601f106200026457805160ff191683800117855562000295565b8280016001018555821562000295579182015b828111156200029457825182559160200191906001019062000277565b5b509050620002a49190620002a8565b5090565b620002cd91905b80821115620002c9576000816000905550600101620002af565b5090565b90565b612b1c80620002e06000396000f3fe608060405234801561001057600080fd5b50600436106101215760003560e01c80636352211e116100ad578063a5763a1f11610071578063a5763a1f14610684578063b88d4fde146106dc578063be49bb7a146107e1578063c87b56dd1461082f578063e985e9c5146108d657610121565b80636352211e146104685780636c0360eb146104d657806370a082311461055957806395d89b41146105b1578063a22cb4651461063457610121565b806318160ddd116100f457806318160ddd146102ca57806323b872dd146102e85780632f745c591461035657806342842e0e146103b85780634f6ccce71461042657610121565b806301ffc9a71461012657806306fdde031461018b578063081812fc1461020e578063095ea7b31461027c575b600080fd5b6101716004803603602081101561013c57600080fd5b8101908080357bffffffffffffffffffffffffffffffffffffffffffffffffffffffff19169060200190929190505050610952565b604051808215151515815260200191505060405180910390f35b6101936109b9565b6040518080602001828103825283818151815260200191508051906020019080838360005b838110156101d35780820151818401526020810190506101b8565b50505050905090810190601f1680156102005780820380516001836020036101000a031916815260200191505b509250505060405180910390f35b61023a6004803603602081101561022457600080fd5b8101908080359060200190929190505050610a5b565b604051808273ffffffffffffffffffffffffffffffffffffffff1673ffffffffffffffffffffffffffffffffffffffff16815260200191505060405180910390f35b6102c86004803603604081101561029257600080fd5b81019080803573ffffffffffffffffffffffffffffffffffffffff16906020019092919080359060200190929190505050610af6565b005b6102d2610c3a565b6040518082815260200191505060405180910390f35b610354600480360360608110156102fe57600080fd5b81019080803573ffffffffffffffffffffffffffffffffffffffff169060200190929190803573ffffffffffffffffffffffffffffffffffffffff16906020019092919080359060200190929190505050610c4b565b005b6103a26004803603604081101561036c57600080fd5b81019080803573ffffffffffffffffffffffffffffffffffffffff16906020019092919080359060200190929190505050610cc1565b6040518082815260200191505060405180910390f35b610424600480360360608110156103ce57600080fd5b81019080803573ffffffffffffffffffffffffffffffffffffffff169060200190929190803573ffffffffffffffffffffffffffffffffffffffff16906020019092919080359060200190929190505050610d1c565b005b6104526004803603602081101561043c57600080fd5b8101908080359060200190929190505050610d3c565b6040518082815260200191505060405180910390f35b6104946004803603602081101561047e57600080fd5b8101908080359060200190929190505050610d5f565b604051808273ffffffffffffffffffffffffffffffffffffffff1673ffffffffffffffffffffffffffffffffffffffff16815260200191505060405180910390f35b6104de610d96565b6040518080602001828103825283818151815260200191508051906020019080838360005b8381101561051e578082015181840152602081019050610503565b50505050905090810190601f16801561054b5780820380516001836020036101000a031916815260200191505b509250505060405180910390f35b61059b6004803603602081101561056f57600080fd5b81019080803573ffffffffffffffffffffffffffffffffffffffff169060200190929190505050610e38565b6040518082815260200191505060405180910390f35b6105b9610f0d565b6040518080602001828103825283818151815260200191508051906020019080838360005b838110156105f95780820151818401526020810190506105de565b50505050905090810190601f1680156106265780820380516001836020036101000a031916815260200191505b509250505060405180910390f35b6106826004803603604081101561064a57600080fd5b81019080803573ffffffffffffffffffffffffffffffffffffffff169060200190929190803515159060200190929190505050610faf565b005b6106c66004803603602081101561069a57600080fd5b81019080803573ffffffffffffffffffffffffffffffffffffffff169060200190929190505050611167565b6040518082815260200191505060405180910390f35b6107df600480360360808110156106f257600080fd5b81019080803573ffffffffffffffffffffffffffffffffffffffff169060200190929190803573ffffffffffffffffffffffffffffffffffffffff169060200190929190803590602001909291908035906020019064010000000081111561075957600080fd5b82018360208201111561076b57600080fd5b8035906020019184600183028401116401000000008311171561078d57600080fd5b91908080601f016020809104026020016040519081016040528093929190818152602001838380828437600081840152601f19601f82011690508083019250505050505050919291929050505061121a565b005b61082d600480360360408110156107f757600080fd5b81019080803573ffffffffffffffffffffffffffffffffffffffff16906020019092919080359060200190929190505050611292565b005b61085b6004803603602081101561084557600080fd5b81019080803590602001909291905050506112a0565b6040518080602001828103825283818151815260200191508051906020019080838360005b8381101561089b578082015181840152602081019050610880565b50505050905090810190601f1680156108c85780820380516001836020036101000a031916815260200191505b509250505060405180910390f35b610938600480360360408110156108ec57600080fd5b81019080803573ffffffffffffffffffffffffffffffffffffffff169060200190929190803573ffffffffffffffffffffffffffffffffffffffff169060200190929190505050611589565b604051808215151515815260200191505060405180910390f35b6000806000837bffffffffffffffffffffffffffffffffffffffffffffffffffffffff19167bffffffffffffffffffffffffffffffffffffffffffffffffffffffff1916815260200190815260200160002060009054906101000a900460ff169050919050565b606060068054600181600116156101000203166002900480601f016020809104026020016040519081016040528092919081815260200182805460018160011615610100020316600290048015610a515780601f10610a2657610100808354040283529160200191610a51565b820191906000526020600020905b815481529060010190602001808311610a3457829003601f168201915b5050505050905090565b6000610a668261161d565b610abb576040517f08c379a000000000000000000000000000000000000000000000000000000000815260040180806020018281038252602c815260200180612a11602c913960400191505060405180910390fd5b6004600083815260200190815260200160002060009054906101000a900473ffffffffffffffffffffffffffffffffffffffff169050919050565b6000610b0182610d5f565b90508073ffffffffffffffffffffffffffffffffffffffff168373ffffffffffffffffffffffffffffffffffffffff161415610b88576040517f08c379a0000000000000000000000000000000000000000000000000000000008152600401808060200182810382526021815260200180612a956021913960400191505060405180910390fd5b8073ffffffffffffffffffffffffffffffffffffffff16610ba761163a565b73ffffffffffffffffffffffffffffffffffffffff161480610bd65750610bd581610bd061163a565b611589565b5b610c2b576040517f08c379a00000000000000000000000000000000000000000000000000000000081526004018080602001828103825260388152602001806129646038913960400191505060405180910390fd5b610c358383611642565b505050565b6000610c4660026116fb565b905090565b610c5c610c5661163a565b82611710565b610cb1576040517f08c379a0000000000000000000000000000000000000000000000000000000008152600401808060200182810382526031815260200180612ab66031913960400191505060405180910390fd5b610cbc838383611804565b505050565b6000610d1482600160008673ffffffffffffffffffffffffffffffffffffffff1673ffffffffffffffffffffffffffffffffffffffff168152602001908152602001600020611a4790919063ffffffff16565b905092915050565b610d378383836040518060200160405280600081525061121a565b505050565b600080610d53836002611a6190919063ffffffff16565b50905080915050919050565b6000610d8f826040518060600160405280602981526020016129c6602991396002611a909092919063ffffffff16565b9050919050565b606060098054600181600116156101000203166002900480601f016020809104026020016040519081016040528092919081815260200182805460018160011615610100020316600290048015610e2e5780601f10610e0357610100808354040283529160200191610e2e565b820191906000526020600020905b815481529060010190602001808311610e1157829003601f168201915b5050505050905090565b60008073ffffffffffffffffffffffffffffffffffffffff168273ffffffffffffffffffffffffffffffffffffffff161415610ebf576040517f08c379a000000000000000000000000000000000000000000000000000000000815260040180806020018281038252602a81526020018061299c602a913960400191505060405180910390fd5b610f06600160008473ffffffffffffffffffffffffffffffffffffffff1673ffffffffffffffffffffffffffffffffffffffff168152602001908152602001600020611aaf565b9050919050565b606060078054600181600116156101000203166002900480601f016020809104026020016040519081016040528092919081815260200182805460018160011615610100020316600290048015610fa55780601f10610f7a57610100808354040283529160200191610fa5565b820191906000526020600020905b815481529060010190602001808311610f8857829003601f168201915b5050505050905090565b610fb761163a565b73ffffffffffffffffffffffffffffffffffffffff168273ffffffffffffffffffffffffffffffffffffffff161415611058576040517f08c379a00000000000000000000000000000000000000000000000000000000081526004018080602001828103825260198152602001807f4552433732313a20617070726f766520746f2063616c6c65720000000000000081525060200191505060405180910390fd5b806005600061106561163a565b73ffffffffffffffffffffffffffffffffffffffff1673ffffffffffffffffffffffffffffffffffffffff16815260200190815260200160002060008473ffffffffffffffffffffffffffffffffffffffff1673ffffffffffffffffffffffffffffffffffffffff16815260200190815260200160002060006101000a81548160ff0219169083151502179055508173ffffffffffffffffffffffffffffffffffffffff1661111261163a565b73ffffffffffffffffffffffffffffffffffffffff167f17307eab39ab6107e8899845ad3d59bd9653f200f220920489ca2b5937696c3183604051808215151515815260200191505060405180910390a35050565b600080611174600a611ac4565b90506103e88111156111ee576040517f08c379a00000000000000000000000000000000000000000000000000000000081526004018080602001828103825260088152602001807f534f4c44204f555400000000000000000000000000000000000000000000000081525060200191505060405180910390fd5b6111f8600a611ad2565b6000611204600a611ac4565b90506112108482611ae8565b8092505050919050565b61122b61122561163a565b83611710565b611280576040517f08c379a0000000000000000000000000000000000000000000000000000000008152600401808060200182810382526031815260200180612ab66031913960400191505060405180910390fd5b61128c84848484611cdc565b50505050565b61129c8282610af6565b5050565b60606112ab8261161d565b611300576040517f08c379a000000000000000000000000000000000000000000000000000000000815260040180806020018281038252602f815260200180612a66602f913960400191505060405180910390fd5b6060600860008481526020019081526020016000208054600181600116156101000203166002900480601f0160208091040260200160405190810160405280929190818152602001828054600181600116156101000203166002900480156113a95780601f1061137e576101008083540402835291602001916113a9565b820191906000526020600020905b81548152906001019060200180831161138c57829003601f168201915b505050505090506000600980546001816001161561010002031660029004905014156113d85780915050611584565b6000815111156114b15760098160405160200180838054600181600116156101000203166002900480156114435780601f10611421576101008083540402835291820191611443565b820191906000526020600020905b81548152906001019060200180831161142f575b505082805190602001908083835b602083106114745780518252602082019150602081019050602083039250611451565b6001836020036101000a03801982511681845116808217855250505050505090500192505050604051602081830303815290604052915050611584565b60096114bc84611d4e565b604051602001808380546001816001161561010002031660029004801561151a5780601f106114f857610100808354040283529182019161151a565b820191906000526020600020905b815481529060010190602001808311611506575b505082805190602001908083835b6020831061154b5780518252602082019150602081019050602083039250611528565b6001836020036101000a038019825116818451168082178552505050505050905001925050506040516020818303038152906040529150505b919050565b6000600560008473ffffffffffffffffffffffffffffffffffffffff1673ffffffffffffffffffffffffffffffffffffffff16815260200190815260200160002060008373ffffffffffffffffffffffffffffffffffffffff1673ffffffffffffffffffffffffffffffffffffffff16815260200190815260200160002060009054906101000a900460ff16905092915050565b6000611633826002611e7e90919063ffffffff16565b9050919050565b600033905090565b816004600083815260200190815260200160002060006101000a81548173ffffffffffffffffffffffffffffffffffffffff021916908373ffffffffffffffffffffffffffffffffffffffff160217905550808273ffffffffffffffffffffffffffffffffffffffff166116b583610d5f565b73ffffffffffffffffffffffffffffffffffffffff167f8c5be1e5ebec7d5bd14f71427d1e84f3dd0314c0f7b2291e5b200ac8c7c3b92560405160405180910390a45050565b600061170982600001611e98565b9050919050565b600061171b8261161d565b611770576040517f08c379a000000000000000000000000000000000000000000000000000000000815260040180806020018281038252602c815260200180612938602c913960400191505060405180910390fd5b600061177b83610d5f565b90508073ffffffffffffffffffffffffffffffffffffffff168473ffffffffffffffffffffffffffffffffffffffff1614806117ea57508373ffffffffffffffffffffffffffffffffffffffff166117d284610a5b565b73ffffffffffffffffffffffffffffffffffffffff16145b806117fb57506117fa8185611589565b5b91505092915050565b8273ffffffffffffffffffffffffffffffffffffffff1661182482610d5f565b73ffffffffffffffffffffffffffffffffffffffff1614611890576040517f08c379a0000000000000000000000000000000000000000000000000000000008152600401808060200182810382526029815260200180612a3d6029913960400191505060405180910390fd5b600073ffffffffffffffffffffffffffffffffffffffff168273ffffffffffffffffffffffffffffffffffffffff161415611916576040517f08c379a00000000000000000000000000000000000000000000000000000000081526004018080602001828103825260248152602001806128ee6024913960400191505060405180910390fd5b611921838383611ea9565b61192c600082611642565b61197d81600160008673ffffffffffffffffffffffffffffffffffffffff1673ffffffffffffffffffffffffffffffffffffffff168152602001908152602001600020611eae90919063ffffffff16565b506119cf81600160008573ffffffffffffffffffffffffffffffffffffffff1673ffffffffffffffffffffffffffffffffffffffff168152602001908152602001600020611ec890919063ffffffff16565b506119e681836002611ee29092919063ffffffff16565b50808273ffffffffffffffffffffffffffffffffffffffff168473ffffffffffffffffffffffffffffffffffffffff167fddf252ad1be2c89b69c2b068fc378daa952ba7f163c4a11628f55a4df523b3ef60405160405180910390a4505050565b6000611a568360000183611f17565b60001c905092915050565b600080600080611a748660000186611f9a565b915091508160001c8160001c8090509350935050509250929050565b6000611aa3846000018460001b84612033565b60001c90509392505050565b6000611abd82600001612129565b9050919050565b600081600001549050919050565b6001816000016000828254019250508190555050565b600073ffffffffffffffffffffffffffffffffffffffff168273ffffffffffffffffffffffffffffffffffffffff161415611b8b576040517f08c379a00000000000000000000000000000000000000000000000000000000081526004018080602001828103825260208152602001807f4552433732313a206d696e7420746f20746865207a65726f206164647265737381525060200191505060405180910390fd5b611b948161161d565b15611c07576040517f08c379a000000000000000000000000000000000000000000000000000000000815260040180806020018281038252601c8152602001807f4552433732313a20746f6b656e20616c7265616479206d696e7465640000000081525060200191505060405180910390fd5b611c1360008383611ea9565b611c6481600160008573ffffffffffffffffffffffffffffffffffffffff1673ffffffffffffffffffffffffffffffffffffffff168152602001908152602001600020611ec890919063ffffffff16565b50611c7b81836002611ee29092919063ffffffff16565b50808273ffffffffffffffffffffffffffffffffffffffff16600073ffffffffffffffffffffffffffffffffffffffff167fddf252ad1be2c89b69c2b068fc378daa952ba7f163c4a11628f55a4df523b3ef60405160405180910390a45050565b611ce7848484611804565b611cf38484848461213a565b611d48576040517f08c379a00000000000000000000000000000000000000000000000000000000081526004018080602001828103825260328152602001806128bc6032913960400191505060405180910390fd5b50505050565b60606000821415611d96576040518060400160405280600181526020017f30000000000000000000000000000000000000000000000000000000000000008152509050611e79565b600082905060005b60008214611dc0578080600101915050600a8281611db857fe5b049150611d9e565b6060816040519080825280601f01601f191660200182016040528015611df55781602001600182028038833980820191505090505b50905060006001830390508593505b60008414611e7157600a8481611e1657fe5b0660300160f81b82828060019003935081518110611e3057fe5b60200101907effffffffffffffffffffffffffffffffffffffffffffffffffffffffffffff1916908160001a905350600a8481611e6957fe5b049350611e04565b819450505050505b919050565b6000611e90836000018360001b61237f565b905092915050565b600081600001805490509050919050565b505050565b6000611ec0836000018360001b6123a2565b905092915050565b6000611eda836000018360001b61248a565b905092915050565b6000611f0e846000018460001b8473ffffffffffffffffffffffffffffffffffffffff1660001b6124fa565b90509392505050565b600081836000018054905011611f78576040517f08c379a000000000000000000000000000000000000000000000000000000000815260040180806020018281038252602281526020018061289a6022913960400191505060405180910390fd5b826000018281548110611f8757fe5b9060005260206000200154905092915050565b60008082846000018054905011611ffc576040517f08c379a00000000000000000000000000000000000000000000000000000000081526004018080602001828103825260228152602001806129ef6022913960400191505060405180910390fd5b600084600001848154811061200d57fe5b906000526020600020906002020190508060000154816001015492509250509250929050565b600080846001016000858152602001908152602001600020549050600081141583906120fa576040517f08c379a00000000000000000000000000000000000000000000000000000000081526004018080602001828103825283818151815260200191508051906020019080838360005b838110156120bf5780820151818401526020810190506120a4565b50505050905090810190601f1680156120ec5780820380516001836020036101000a031916815260200191505b509250505060405180910390fd5b5084600001600182038154811061210d57fe5b9060005260206000209060020201600101549150509392505050565b600081600001805490509050919050565b600061215b8473ffffffffffffffffffffffffffffffffffffffff166125d6565b6121685760019050612377565b60606122fe63150b7a0260e01b61217d61163a565b888787604051602401808573ffffffffffffffffffffffffffffffffffffffff1673ffffffffffffffffffffffffffffffffffffffff1681526020018473ffffffffffffffffffffffffffffffffffffffff1673ffffffffffffffffffffffffffffffffffffffff16815260200183815260200180602001828103825283818151815260200191508051906020019080838360005b8381101561222d578082015181840152602081019050612212565b50505050905090810190601f16801561225a5780820380516001836020036101000a031916815260200191505b5095505050505050604051602081830303815290604052907bffffffffffffffffffffffffffffffffffffffffffffffffffffffff19166020820180517bffffffffffffffffffffffffffffffffffffffffffffffffffffffff83818316178352505050506040518060600160405280603281526020016128bc603291398773ffffffffffffffffffffffffffffffffffffffff166125e99092919063ffffffff16565b9050600081806020019051602081101561231757600080fd5b8101908080519060200190929190505050905063150b7a0260e01b7bffffffffffffffffffffffffffffffffffffffffffffffffffffffff1916817bffffffffffffffffffffffffffffffffffffffffffffffffffffffff191614925050505b949350505050565b600080836001016000848152602001908152602001600020541415905092915050565b6000808360010160008481526020019081526020016000205490506000811461247e57600060018203905060006001866000018054905003905060008660000182815481106123ed57fe5b906000526020600020015490508087600001848154811061240a57fe5b906000526020600020018190555060018301876001016000838152602001908152602001600020819055508660000180548061244257fe5b60019003818190600052602060002001600090559055866001016000878152602001908152602001600020600090556001945050505050612484565b60009150505b92915050565b60006124968383612601565b6124ef5782600001829080600181540180825580915050600190039060005260206000200160009091909190915055826000018054905083600101600084815260200190815260200160002081905550600190506124f4565b600090505b92915050565b60008084600101600085815260200190815260200160002054905060008114156125a1578460000160405180604001604052808681526020018581525090806001815401808255809150506001900390600052602060002090600202016000909190919091506000820151816000015560208201518160010155505084600001805490508560010160008681526020019081526020016000208190555060019150506125cf565b828560000160018303815481106125b457fe5b90600052602060002090600202016001018190555060009150505b9392505050565b600080823b905060008111915050919050565b60606125f88484600085612624565b90509392505050565b600080836001016000848152602001908152602001600020541415905092915050565b60608247101561267f576040517f08c379a00000000000000000000000000000000000000000000000000000000081526004018080602001828103825260268152602001806129126026913960400191505060405180910390fd5b612688856125d6565b6126fa576040517f08c379a000000000000000000000000000000000000000000000000000000000815260040180806020018281038252601d8152602001807f416464726573733a2063616c6c20746f206e6f6e2d636f6e747261637400000081525060200191505060405180910390fd5b600060608673ffffffffffffffffffffffffffffffffffffffff1685876040518082805190602001908083835b6020831061274a5780518252602082019150602081019050602083039250612727565b6001836020036101000a03801982511681845116808217855250505050505090500191505060006040518083038185875af1925050503d80600081146127ac576040519150601f19603f3d011682016040523d82523d6000602084013e6127b1565b606091505b50915091506127c18282866127cd565b92505050949350505050565b606083156127dd57829050612892565b6000835111156127f05782518084602001fd5b816040517f08c379a00000000000000000000000000000000000000000000000000000000081526004018080602001828103825283818151815260200191508051906020019080838360005b8381101561285757808201518184015260208101905061283c565b50505050905090810190601f1680156128845780820380516001836020036101000a031916815260200191505b509250505060405180910390fd5b939250505056fe456e756d657261626c655365743a20696e646578206f7574206f6620626f756e64734552433732313a207472616e7366657220746f206e6f6e20455243373231526563656976657220696d706c656d656e7465724552433732313a207472616e7366657220746f20746865207a65726f2061646472657373416464726573733a20696e73756666696369656e742062616c616e636520666f722063616c6c4552433732313a206f70657261746f7220717565727920666f72206e6f6e6578697374656e7420746f6b656e4552433732313a20617070726f76652063616c6c6572206973206e6f74206f776e6572206e6f7220617070726f76656420666f7220616c6c4552433732313a2062616c616e636520717565727920666f7220746865207a65726f20616464726573734552433732313a206f776e657220717565727920666f72206e6f6e6578697374656e7420746f6b656e456e756d657261626c654d61703a20696e646578206f7574206f6620626f756e64734552433732313a20617070726f76656420717565727920666f72206e6f6e6578697374656e7420746f6b656e4552433732313a207472616e73666572206f6620746f6b656e2074686174206973206e6f74206f776e4552433732314d657461646174613a2055524920717565727920666f72206e6f6e6578697374656e7420746f6b656e4552433732313a20617070726f76616c20746f2063757272656e74206f776e65724552433732313a207472616e736665722063616c6c6572206973206e6f74206f776e6572206e6f7220617070726f766564a26469706673582212206e92fd3a7a6f7848aa4e1db2d6d1590fdc67518bdddf636ea6288038a86c185364736f6c63430006020033",
  "source": "pragma solidity ^0.6.0;\n\nimport \"../node_modules/openzeppelin-solidity/contracts/token/ERC721/ERC721.sol\";\nimport \"../node_modules/openzeppelin-solidity/contracts/utils/Counters.sol\";\n\ncontract FiestaERC721 is ERC721 {\n    using Counters for Counters.Counter;\n    Counters.Counter private _tokenIds;\n    \n    /**\n     * Note that this ERC721 is  deflationary , the supply is fixed to 1000 !\n     * \n     */\n    \n    constructor() public ERC721(\"FiestaNFT\", \"FSTN\") {}\n   \n    \n    /**\n     * @dev Approves another address to transfer the given token ID.\n     * @param _receiver address of the new owner wich will received, _idTicket ID of the token to be owned.\n     */ \n    function approveNewOwner(address _receiver, uint256 _idTicket) \n        public \n    {\n        approve(_receiver,_idTicket);   \n    }\n    /**\n     * @dev mint a new nft and send it to its buyer.\n     * @param _marketAddress address of the buyer.\n     */ \n    function createTicket(address _marketAddress) \n        public  \n        returns  (uint256)\n    {\n        uint256 liMint = _tokenIds.current();\n        require(liMint <= 1000,\"SOLD OUT\");\n        _tokenIds.increment();\n        uint256 newTicket = _tokenIds.current();\n        _mint(_marketAddress, newTicket);\n        return newTicket;\n   }\n}\n\n",
  "sourcePath": "/home/gaethan/Bureau/Final/contracts/FiestaERC721.sol",
  "compiler": {
    "name": "solc",
    "version": "0.6.2+commit.bacdbe57.Emscripten.clang"
  },
  "schemaVersion": "3.3.2",
  "updatedAt": "2020-12-14T20:14:59.346Z",
  "networkType": "ethereum",
  "devdoc": {
    "methods": {
      "approve(address,uint256)": {
        "details": "See {IERC721-approve}."
      },
      "approveNewOwner(address,uint256)": {
        "details": "Approves another address to transfer the given token ID.",
        "params": {
          "_receiver": "address of the new owner wich will received, _idTicket ID of the token to be owned."
        }
      },
      "balanceOf(address)": {
        "details": "See {IERC721-balanceOf}."
      },
      "baseURI()": {
        "details": "Returns the base URI set via {_setBaseURI}. This will be automatically added as a prefix in {tokenURI} to each token's URI, or to the token ID if no specific URI is set for that token ID."
      },
      "createTicket(address)": {
        "details": "mint a new nft and send it to its buyer.",
        "params": {
          "_marketAddress": "address of the buyer."
        }
      },
      "getApproved(uint256)": {
        "details": "See {IERC721-getApproved}."
      },
      "isApprovedForAll(address,address)": {
        "details": "See {IERC721-isApprovedForAll}."
      },
      "name()": {
        "details": "See {IERC721Metadata-name}."
      },
      "ownerOf(uint256)": {
        "details": "See {IERC721-ownerOf}."
      },
      "safeTransferFrom(address,address,uint256)": {
        "details": "See {IERC721-safeTransferFrom}."
      },
      "safeTransferFrom(address,address,uint256,bytes)": {
        "details": "See {IERC721-safeTransferFrom}."
      },
      "setApprovalForAll(address,bool)": {
        "details": "See {IERC721-setApprovalForAll}."
      },
      "supportsInterface(bytes4)": {
        "details": "See {IERC165-supportsInterface}.     * Time complexity O(1), guaranteed to always use less than 30 000 gas."
      },
      "symbol()": {
        "details": "See {IERC721Metadata-symbol}."
      },
      "tokenByIndex(uint256)": {
        "details": "See {IERC721Enumerable-tokenByIndex}."
      },
      "tokenOfOwnerByIndex(address,uint256)": {
        "details": "See {IERC721Enumerable-tokenOfOwnerByIndex}."
      },
      "tokenURI(uint256)": {
        "details": "See {IERC721Metadata-tokenURI}."
      },
      "totalSupply()": {
        "details": "See {IERC721Enumerable-totalSupply}."
      },
      "transferFrom(address,address,uint256)": {
        "details": "See {IERC721-transferFrom}."
      }
    }
  },
  "userdoc": {
    "methods": {
      "constructor": "Note that this ERC721 is  deflationary , the supply is fixed to 1000 !      "
    }
  }
}