{
  "contractName": "Market",
  "abi": [
    {
      "inputs": [
        {
          "internalType": "address",
          "name": "_currencyTokenAddress",
          "type": "address"
        },
        {
          "internalType": "address",
          "name": "_itemTokenAddress",
          "type": "address"
        }
      ],
      "stateMutability": "nonpayable",
      "type": "constructor"
    },
    {
      "anonymous": false,
      "inputs": [
        {
          "indexed": false,
          "internalType": "uint256",
          "name": "ad",
          "type": "uint256"
        },
        {
          "indexed": false,
          "internalType": "bytes32",
          "name": "status",
          "type": "bytes32"
        }
      ],
      "name": "TradeStatusChange",
      "type": "event"
    },
    {
      "inputs": [
        {
          "internalType": "uint256",
          "name": "",
          "type": "uint256"
        }
      ],
      "name": "idTicket",
      "outputs": [
        {
          "internalType": "uint256",
          "name": "",
          "type": "uint256"
        }
      ],
      "stateMutability": "view",
      "type": "function",
      "constant": true
    },
    {
      "inputs": [
        {
          "internalType": "uint256",
          "name": "",
          "type": "uint256"
        }
      ],
      "name": "infoSupply",
      "outputs": [
        {
          "internalType": "uint256",
          "name": "TicketSupply",
          "type": "uint256"
        },
        {
          "internalType": "uint256",
          "name": "TicketForSales",
          "type": "uint256"
        },
        {
          "internalType": "uint256",
          "name": "TicketNotForSales",
          "type": "uint256"
        },
        {
          "internalType": "uint256",
          "name": "TicketAvailable",
          "type": "uint256"
        }
      ],
      "stateMutability": "view",
      "type": "function",
      "constant": true
    },
    {
      "inputs": [
        {
          "internalType": "uint256",
          "name": "",
          "type": "uint256"
        }
      ],
      "name": "saleStatus",
      "outputs": [
        {
          "internalType": "bool",
          "name": "",
          "type": "bool"
        }
      ],
      "stateMutability": "view",
      "type": "function",
      "constant": true
    },
    {
      "inputs": [
        {
          "internalType": "uint256",
          "name": "",
          "type": "uint256"
        }
      ],
      "name": "soldBalancer",
      "outputs": [
        {
          "internalType": "uint256",
          "name": "",
          "type": "uint256"
        }
      ],
      "stateMutability": "view",
      "type": "function",
      "constant": true
    },
    {
      "inputs": [
        {
          "internalType": "uint256",
          "name": "",
          "type": "uint256"
        }
      ],
      "name": "trades",
      "outputs": [
        {
          "internalType": "address",
          "name": "poster",
          "type": "address"
        },
        {
          "internalType": "uint256",
          "name": "item",
          "type": "uint256"
        },
        {
          "internalType": "uint256",
          "name": "price",
          "type": "uint256"
        },
        {
          "internalType": "bytes32",
          "name": "status",
          "type": "bytes32"
        }
      ],
      "stateMutability": "view",
      "type": "function",
      "constant": true
    },
    {
      "inputs": [
        {
          "internalType": "uint256",
          "name": "_ticketPrice",
          "type": "uint256"
        }
      ],
      "name": "buyTicket",
      "outputs": [],
      "stateMutability": "nonpayable",
      "type": "function"
    },
    {
      "inputs": [
        {
          "internalType": "uint256",
          "name": "_coin",
          "type": "uint256"
        }
      ],
      "name": "buyCoin",
      "outputs": [],
      "stateMutability": "payable",
      "type": "function",
      "payable": true
    },
    {
      "inputs": [
        {
          "internalType": "uint256",
          "name": "_trade",
          "type": "uint256"
        }
      ],
      "name": "getTrade",
      "outputs": [
        {
          "internalType": "address",
          "name": "",
          "type": "address"
        },
        {
          "internalType": "uint256",
          "name": "",
          "type": "uint256"
        },
        {
          "internalType": "uint256",
          "name": "",
          "type": "uint256"
        },
        {
          "internalType": "bytes32",
          "name": "",
          "type": "bytes32"
        }
      ],
      "stateMutability": "view",
      "type": "function",
      "constant": true
    },
    {
      "inputs": [],
      "name": "getInfo",
      "outputs": [
        {
          "internalType": "uint256",
          "name": "",
          "type": "uint256"
        },
        {
          "internalType": "uint256",
          "name": "",
          "type": "uint256"
        },
        {
          "internalType": "uint256",
          "name": "",
          "type": "uint256"
        },
        {
          "internalType": "uint256",
          "name": "",
          "type": "uint256"
        }
      ],
      "stateMutability": "nonpayable",
      "type": "function"
    },
    {
      "inputs": [
        {
          "internalType": "uint256",
          "name": "_item",
          "type": "uint256"
        },
        {
          "internalType": "uint256",
          "name": "_price",
          "type": "uint256"
        }
      ],
      "name": "openTrade",
      "outputs": [],
      "stateMutability": "nonpayable",
      "type": "function"
    },
    {
      "inputs": [
        {
          "internalType": "uint256",
          "name": "_trade",
          "type": "uint256"
        }
      ],
      "name": "executeTrade",
      "outputs": [],
      "stateMutability": "nonpayable",
      "type": "function"
    },
    {
      "inputs": [],
      "name": "getTicketForSale",
      "outputs": [
        {
          "internalType": "uint256[]",
          "name": "",
          "type": "uint256[]"
        },
        {
          "internalType": "uint256[]",
          "name": "",
          "type": "uint256[]"
        }
      ],
      "stateMutability": "view",
      "type": "function",
      "constant": true
    },
    {
      "inputs": [
        {
          "internalType": "uint256",
          "name": "_trade",
          "type": "uint256"
        }
      ],
      "name": "cancelTrade",
      "outputs": [],
      "stateMutability": "nonpayable",
      "type": "function"
    }
  ],
  "bytecode": "0x608060405234801561001057600080fd5b50604051611a57380380611a578339818101604052604081101561003357600080fd5b810190808051906020019092919080519060200190929190505050806000806101000a81548173ffffffffffffffffffffffffffffffffffffffff021916908373ffffffffffffffffffffffffffffffffffffffff16021790555081600160006101000a81548173ffffffffffffffffffffffffffffffffffffffff021916908373ffffffffffffffffffffffffffffffffffffffff160217905550600060078190555060006008819055506000600981905550505061195f806100f86000396000f3fe6080604052600436106100c25760003560e01c80633917d2e41161007f57806387792574116100595780638779257414610420578063a7bf38861461044e578063d70c85a91461049d578063f557916414610501576100c2565b80633917d2e4146102f15780635a9b0b89146103a557806367dd74ca146103e5576100c2565b806302d2838b146100c757806309ec6cc7146101025780630c493fba1461013d5780631e6c598e146101825780632a598d53146102125780632db25e0514610261575b600080fd5b3480156100d357600080fd5b50610100600480360360208110156100ea57600080fd5b8101908080359060200190929190505050610554565b005b34801561010e57600080fd5b5061013b6004803603602081101561012557600080fd5b81019080803590602001909291905050506109f0565b005b34801561014957600080fd5b506101806004803603604081101561016057600080fd5b810190808035906020019092919080359060200190929190505050610d47565b005b34801561018e57600080fd5b506101bb600480360360208110156101a557600080fd5b8101908080359060200190929190505050611088565b604051808573ffffffffffffffffffffffffffffffffffffffff1673ffffffffffffffffffffffffffffffffffffffff16815260200184815260200183815260200182815260200194505050505060405180910390f35b34801561021e57600080fd5b5061024b6004803603602081101561023557600080fd5b81019080803590602001909291905050506110d8565b6040518082815260200191505060405180910390f35b34801561026d57600080fd5b5061029a6004803603602081101561028457600080fd5b81019080803590602001909291905050506110f0565b604051808573ffffffffffffffffffffffffffffffffffffffff1673ffffffffffffffffffffffffffffffffffffffff16815260200184815260200183815260200182815260200194505050505060405180910390f35b3480156102fd57600080fd5b50610306611269565b604051808060200180602001838103835285818151815260200191508051906020019060200280838360005b8381101561034d578082015181840152602081019050610332565b50505050905001838103825284818151815260200191508051906020019060200280838360005b8381101561038f578082015181840152602081019050610374565b5050505090500194505050505060405180910390f35b3480156103b157600080fd5b506103ba611406565b6040518085815260200184815260200183815260200182815260200194505050505060405180910390f35b3480156103f157600080fd5b5061041e6004803603602081101561040857600080fd5b81019080803590602001909291905050506114ef565b005b61044c6004803603602081101561043657600080fd5b810190808035906020019092919050505061172c565b005b34801561045a57600080fd5b506104876004803603602081101561047157600080fd5b810190808035906020019092919050505061182b565b6040518082815260200191505060405180910390f35b3480156104a957600080fd5b506104d6600480360360208110156104c057600080fd5b8101908080359060200190929190505050611843565b6040518085815260200184815260200183815260200182815260200194505050505060405180910390f35b34801561050d57600080fd5b5061053a6004803603602081101561052457600080fd5b8101908080359060200190929190505050611873565b604051808215151515815260200191505060405180910390f35b60016009600082825401925050819055506001600860008282540392505081905550600060046000838152602001908152602001600020549050610596611893565b600260008481526020019081526020016000206040518060800160405290816000820160009054906101000a900473ffffffffffffffffffffffffffffffffffffffff1673ffffffffffffffffffffffffffffffffffffffff1673ffffffffffffffffffffffffffffffffffffffff168152602001600182015481526020016002820154815260200160038201548152505090507f4f70656e000000000000000000000000000000000000000000000000000000008160600151146106c3576040517f08c379a00000000000000000000000000000000000000000000000000000000081526004018080602001828103825260128152602001807f5472616465206973206e6f74204f70656e2e000000000000000000000000000081525060200191505060405180910390fd5b8181602001511461073c576040517f08c379a000000000000000000000000000000000000000000000000000000000815260040180806020018281038252600f8152602001807f57726f6e67207469636b6574206964000000000000000000000000000000000081525060200191505060405180910390fd5b600160009054906101000a900473ffffffffffffffffffffffffffffffffffffffff1673ffffffffffffffffffffffffffffffffffffffff166323b872dd33836000015184604001516040518463ffffffff1660e01b8152600401808473ffffffffffffffffffffffffffffffffffffffff1673ffffffffffffffffffffffffffffffffffffffff1681526020018373ffffffffffffffffffffffffffffffffffffffff1673ffffffffffffffffffffffffffffffffffffffff1681526020018281526020019350505050602060405180830381600087803b15801561082157600080fd5b505af1158015610835573d6000803e3d6000fd5b505050506040513d602081101561084b57600080fd5b8101908080519060200190929190505050506000809054906101000a900473ffffffffffffffffffffffffffffffffffffffff1673ffffffffffffffffffffffffffffffffffffffff166323b872dd3033856040518463ffffffff1660e01b8152600401808473ffffffffffffffffffffffffffffffffffffffff1673ffffffffffffffffffffffffffffffffffffffff1681526020018373ffffffffffffffffffffffffffffffffffffffff1673ffffffffffffffffffffffffffffffffffffffff1681526020018281526020019350505050600060405180830381600087803b15801561093957600080fd5b505af115801561094d573d6000803e3d6000fd5b505050507f457865637574656400000000000000000000000000000000000000000000000060026000858152602001908152602001600020600301819055507f4d38ed2c5ea671a5ccddc331f0ebebd94a60aaf6e572543497485d4d148f9edf8360405180828152602001807f457865637574656400000000000000000000000000000000000000000000000081525060200191505060405180910390a1505050565b6109f8611893565b600260008381526020019081526020016000206040518060800160405290816000820160009054906101000a900473ffffffffffffffffffffffffffffffffffffffff1673ffffffffffffffffffffffffffffffffffffffff1673ffffffffffffffffffffffffffffffffffffffff16815260200160018201548152602001600282015481526020016003820154815250509050806000015173ffffffffffffffffffffffffffffffffffffffff163373ffffffffffffffffffffffffffffffffffffffff1614610b14576040517f08c379a00000000000000000000000000000000000000000000000000000000081526004018080602001828103825260268152602001806118d56026913960400191505060405180910390fd5b7f4f70656e00000000000000000000000000000000000000000000000000000000816060015114610bad576040517f08c379a00000000000000000000000000000000000000000000000000000000081526004018080602001828103825260128152602001807f5472616465206973206e6f74204f70656e2e000000000000000000000000000081525060200191505060405180910390fd5b6000809054906101000a900473ffffffffffffffffffffffffffffffffffffffff1673ffffffffffffffffffffffffffffffffffffffff166323b872dd30836000015184602001516040518463ffffffff1660e01b8152600401808473ffffffffffffffffffffffffffffffffffffffff1673ffffffffffffffffffffffffffffffffffffffff1681526020018373ffffffffffffffffffffffffffffffffffffffff1673ffffffffffffffffffffffffffffffffffffffff1681526020018281526020019350505050600060405180830381600087803b158015610c9157600080fd5b505af1158015610ca5573d6000803e3d6000fd5b505050507f43616e63656c6c6564000000000000000000000000000000000000000000000060026000848152602001908152602001600020600301819055507f4d38ed2c5ea671a5ccddc331f0ebebd94a60aaf6e572543497485d4d148f9edf8260405180828152602001807f43616e63656c6c6564000000000000000000000000000000000000000000000081525060200191505060405180910390a15050565b600160096000828254039250508190555060016008600082825401925050819055506000600a600660008581526020019081526020016000205481610d8857fe5b04600660008581526020019081526020016000205401905080821115610df9576040517f08c379a000000000000000000000000000000000000000000000000000000000815260040180806020018281038252602f8152602001806118fb602f913960400191505060405180910390fd5b6000809054906101000a900473ffffffffffffffffffffffffffffffffffffffff1673ffffffffffffffffffffffffffffffffffffffff166323b872dd3330866040518463ffffffff1660e01b8152600401808473ffffffffffffffffffffffffffffffffffffffff1673ffffffffffffffffffffffffffffffffffffffff1681526020018373ffffffffffffffffffffffffffffffffffffffff1673ffffffffffffffffffffffffffffffffffffffff1681526020018281526020019350505050600060405180830381600087803b158015610ed557600080fd5b505af1158015610ee9573d6000803e3d6000fd5b5050505060405180608001604052803373ffffffffffffffffffffffffffffffffffffffff1681526020018481526020018381526020017f4f70656e00000000000000000000000000000000000000000000000000000000815250600260006004600087815260200190815260200160002054815260200190815260200160002060008201518160000160006101000a81548173ffffffffffffffffffffffffffffffffffffffff021916908373ffffffffffffffffffffffffffffffffffffffff1602179055506020820151816001015560408201518160020155606082015181600301559050506001600560006004600087815260200190815260200160002054815260200190815260200160002060006101000a81548160ff0219169083151502179055507f4d38ed2c5ea671a5ccddc331f0ebebd94a60aaf6e572543497485d4d148f9edf600460008581526020019081526020016000205460405180828152602001807f4f70656e0000000000000000000000000000000000000000000000000000000081525060200191505060405180910390a1505050565b60026020528060005260406000206000915090508060000160009054906101000a900473ffffffffffffffffffffffffffffffffffffffff16908060010154908060020154908060030154905084565b60066020528060005260406000206000915090505481565b600080600080600115156005600087815260200190815260200160002060009054906101000a900460ff16151514611190576040517f08c379a00000000000000000000000000000000000000000000000000000000081526004018080602001828103825260138152602001807f7469636b6574206e6f7420666f722073616c650000000000000000000000000081525060200191505060405180910390fd5b6000600460008781526020019081526020016000205490506111b0611893565b600260008381526020019081526020016000206040518060800160405290816000820160009054906101000a900473ffffffffffffffffffffffffffffffffffffffff1673ffffffffffffffffffffffffffffffffffffffff1673ffffffffffffffffffffffffffffffffffffffff168152602001600182015481526020016002820154815260200160038201548152505090508060000151816020015182604001518360600151955095509550955050509193509193565b60608060606103e860405190808252806020026020018201604052801561129f5781602001602082028038833980820191505090505b50905060606103e86040519080825280602002602001820160405280156112d55781602001602082028038833980820191505090505b50905060008090505b6103e88110156113f9576112f0611893565b600260008381526020019081526020016000206040518060800160405290816000820160009054906101000a900473ffffffffffffffffffffffffffffffffffffffff1673ffffffffffffffffffffffffffffffffffffffff1673ffffffffffffffffffffffffffffffffffffffff168152602001600182015481526020016002820154815260200160038201548152505090507f4f70656e00000000000000000000000000000000000000000000000000000000816060015114156113eb5780602001518483815181106113c157fe5b60200260200101818152505080604001518383815181106113de57fe5b6020026020010181815250505b5080806001019150506112de565b5081819350935050509091565b60008060008060405180608001604052806103e88152602001600854815260200160095481526020016008546009546103e803018152506003600060075481526020019081526020016000206000820151816000015560208201518160010155604082015181600201556060820151816003015590505060036000600754815260200190815260200160002060000154600360006007548152602001908152602001600020600101546003600060075481526020019081526020016000206002015460036000600754815260200190815260200160002060030154935093509350935090919293565b600160009054906101000a900473ffffffffffffffffffffffffffffffffffffffff1673ffffffffffffffffffffffffffffffffffffffff166323b872dd3330846040518463ffffffff1660e01b8152600401808473ffffffffffffffffffffffffffffffffffffffff1673ffffffffffffffffffffffffffffffffffffffff1681526020018373ffffffffffffffffffffffffffffffffffffffff1673ffffffffffffffffffffffffffffffffffffffff1681526020018281526020019350505050602060405180830381600087803b1580156115cc57600080fd5b505af11580156115e0573d6000803e3d6000fd5b505050506040513d60208110156115f657600080fd5b81019080805190602001909291905050505060008060009054906101000a900473ffffffffffffffffffffffffffffffffffffffff1673ffffffffffffffffffffffffffffffffffffffff1663a5763a1f336040518263ffffffff1660e01b8152600401808273ffffffffffffffffffffffffffffffffffffffff1673ffffffffffffffffffffffffffffffffffffffff168152602001915050602060405180830381600087803b1580156116aa57600080fd5b505af11580156116be573d6000803e3d6000fd5b505050506040513d60208110156116d457600080fd5b8101908080519060200190929190505050905080600460008381526020019081526020016000208190555081600660008381526020019081526020016000208190555060016009600082825401925050819055505050565b6000670de0b6b3a76400006103e88302029050600160009054906101000a900473ffffffffffffffffffffffffffffffffffffffff1673ffffffffffffffffffffffffffffffffffffffff16631770b62c33836040518363ffffffff1660e01b8152600401808373ffffffffffffffffffffffffffffffffffffffff1673ffffffffffffffffffffffffffffffffffffffff16815260200182815260200192505050600060405180830381600087803b1580156117e857600080fd5b505af11580156117fc573d6000803e3d6000fd5b505050508060066000600160076000828254019250508190558152602001908152602001600020819055505050565b60046020528060005260406000206000915090505481565b60036020528060005260406000206000915090508060000154908060010154908060020154908060030154905084565b60056020528060005260406000206000915054906101000a900460ff1681565b6040518060800160405280600073ffffffffffffffffffffffffffffffffffffffff168152602001600081526020016000815260200160008019168152509056fe54726164652063616e2062652063616e63656c6c6564206f6e6c7920627920706f737465722e70726963652063616e206265203130252067726561746572207468616e2074686520696e697469616c2073656c6c20a2646970667358221220be275addf4738787f314f3c2040e23b90b906c45060acb0186fd776f4fd3289464736f6c63430006020033",
  "source": "\npragma solidity ^0.6.0;\n\nimport \"../node_modules/openzeppelin-solidity/contracts/access/Ownable.sol\";\nimport \"../node_modules/openzeppelin-solidity/contracts/token/ERC20/IERC20.sol\";\nimport \"../node_modules/openzeppelin-solidity/contracts/token/ERC721/IERC721.sol\";\nimport \"../node_modules/openzeppelin-solidity/contracts/utils/Counters.sol\";\nimport \"./FiestaERC721.sol\";\nimport \"./FiestaERC20.sol\";\n\n/**\n * @title Market\n * @notice Implements the Market board. The market is governed\n * by an ERC20  currency token, and an ERC721 token that represents the\n * ownership of the ticket (NFT) being bought or traded.\n */\ncontract Market  {\n    event TradeStatusChange(uint256 ad, bytes32 status);\n\n\n    FiestaERC721 fst;\n    FiestaERC20 fstC;\n\n    struct Trade {\n        address poster;\n        uint256 item;\n        uint256 price;\n        bytes32 status; // Open, Executed, Cancelled\n\n    }\n    struct InfoSupply {\n       uint256 TicketSupply;\n       uint256 TicketForSales;\n       uint256 TicketNotForSales;\n       uint256 TicketAvailable;\n    }\t\n\n    mapping(uint256 => Trade) public trades;\n    mapping(uint256 => InfoSupply) public infoSupply;\n    mapping(uint256 => uint256) public idTicket;\n    mapping(uint256 => bool) public saleStatus;\n    mapping(uint256 => uint256) public soldBalancer;\n \n\n\n    uint256 ticketCounter;\n    uint256 ticketForSales;\n    uint256 ticketNotForSales; \n\n    constructor (address _currencyTokenAddress, address _itemTokenAddress)\n        public\n        virtual\n    {\n        \n        fst = FiestaERC721(_itemTokenAddress);\n        fstC = FiestaERC20(_currencyTokenAddress);\n        ticketCounter = 0;\n        ticketForSales= 0;\n        ticketNotForSales = 0;\n        \n    }\n    \n   \n   \n    \n    \n    /**\n     * @dev Returns the NFT to the buyer address.\n     * @param _ticketPrice The price of the NFT.\n     */\n    function buyTicket(uint256 _ticketPrice) public virtual  \n    {\n        \n        fstC.transferFrom(msg.sender,address(this), _ticketPrice);\t\n        uint256 idT = fst.createTicket(msg.sender);\n        idTicket[idT] = idT;\n        soldBalancer[idT] = _ticketPrice;\n        ticketNotForSales +=1;\n\n    }\n    \n    /**\n     * @dev Returns the FT to the buyer address.\n     * @param _coin The amount of FT bought (FST token).\n     */\n    function buyCoin(uint256 _coin) public payable virtual  \n    {\n        uint256 amount = _coin * 1000 * (10 ** 18);\n        fstC.mintFiesta(msg.sender,amount);\n        soldBalancer[ticketCounter += 1] = amount;\t        \n    }\n   \n\n    /**\n     * @dev Returns the details for a trade.\n     * @param _trade The id for the trade.\n     */\n    function getTrade(uint256 _trade)\n        public\n        virtual\n        view\n        returns(address, uint256, uint256, bytes32)\n    {   \n    \trequire(saleStatus[_trade] == true ,\"ticket not for sale\");\n        uint256 ticket = idTicket[_trade];\n        Trade memory trade = trades[ticket];\n        return (trade.poster, trade.item, trade.price, trade.status);\n    }\n    /**\n     * @dev Returns the details of all the supply NFT.\n     */\n    function getInfo()\n        public\n        virtual\n        \n        returns(uint256, uint256, uint256, uint256)\n    {   \n    \tinfoSupply[ticketCounter] = InfoSupply({\n\t   TicketSupply: 1000,\n           TicketForSales: ticketForSales,\n           TicketNotForSales: ticketNotForSales,\n           TicketAvailable: 1000 - ticketNotForSales + ticketForSales\n\t\n\t}); \n       \n        \n        return (infoSupply[ticketCounter] .TicketSupply, infoSupply[ticketCounter] .TicketForSales, infoSupply[ticketCounter] .TicketNotForSales, infoSupply[ticketCounter] .TicketAvailable);\n    }\n   \n    \n           \n\n    \n    /**\n     * @dev Opens a new trade. Puts _item in escrow.\n     * @param _item The id for the NFT to trade.\n     * @param _price The amount of currency for which to trade the NFT.\n     */\n    function openTrade(uint256 _item, uint256 _price)\n        public\n        virtual\n    {\t\n        ticketNotForSales -=1;\n        ticketForSales += 1;\n    \tuint256 priceLimit = soldBalancer[_item] + (soldBalancer[_item] / 10) ;\n    \trequire(_price <= priceLimit, \"price can be 10% greater than the initial sell \"); \n        fst.transferFrom(msg.sender, address(this), _item);\n        trades[idTicket[_item]] = Trade({\n            poster: msg.sender,\n            item: _item,\n            price: _price,\n            status: \"Open\"\n        });\n\t\n       \n        \n        saleStatus[idTicket[_item]] = true;\n        emit TradeStatusChange(idTicket[_item], \"Open\");\n    }\n\n    /**\n     * @dev Executes a trade. Must have approved this contract to transfer the\n     * amount of currency specified to the poster. Transfers ownership of the\n     * NFT to the filler.\n     * @param _trade The id of the NFT trade\n     */\n    function executeTrade(uint256 _trade)\n        public\n        virtual\n    {   \n        ticketNotForSales +=1 ;\n        ticketForSales -=1 ;\n        \n        uint256 ticket = idTicket[_trade];\n        Trade memory trade = trades[_trade];\n       \n        require(trade.status == \"Open\", \"Trade is not Open.\");\n        require(trade.item == ticket , \"Wrong ticket id\");\n\n        fstC.transferFrom(msg.sender,trade.poster , trade.price);\n        fst.transferFrom(address(this), msg.sender, ticket);\n       \n        trades[_trade].status = \"Executed\";\n        emit TradeStatusChange(_trade, \"Executed\");\n        \n    }\n    /**\n     * @dev Returns the details of all tickets put in sale on the Secondary market.\n     */\n    function getTicketForSale()\n        public\n        virtual\n        view        \n        returns(uint256[]  memory, uint256[]  memory)\n    {   \n        uint256[] memory a = new uint256[](1000);\n        uint256[] memory b = new uint256[](1000);\n        //uint table[ticketCounter];\n        for(uint i = 0 ; i<1000; i++) \n        {\n        Trade memory trade = trades[i];\n        \tif(trade.status == \"Open\")\n        \t{\n        \t    a[i] = trade.item;\n        \t    b[i] = trade.price;\n        \t    //return (trade.item, trade.price, ticketCounter);\n        \t}       \n        }\n        return (a,b);\n     }\n     // Not yet used\n    /**\n     * @dev Cancels a trade by the poster.\n     * @param _trade The trade to be cancelled.\n     */\n    function cancelTrade(uint256 _trade)\n        public\n        virtual\n    {\n        Trade memory trade = trades[_trade];\n        require(\n            msg.sender == trade.poster,\n            \"Trade can be cancelled only by poster.\"\n        );\n        require(trade.status == \"Open\", \"Trade is not Open.\");\n        fst.transferFrom(address(this), trade.poster, trade.item);\n        trades[_trade].status = \"Cancelled\";\n        emit TradeStatusChange(_trade, \"Cancelled\");\n    }\n}\n",
  "sourcePath": "/home/gaethan/Bureau/Fiesta_dapp/contracts/Market.sol",
  "compiler": {
    "name": "solc",
    "version": "0.6.2+commit.bacdbe57.Emscripten.clang"
  },
  "schemaVersion": "3.3.2",
  "updatedAt": "2020-12-15T08:52:13.801Z",
  "networkType": "ethereum",
  "devdoc": {
    "methods": {
      "buyCoin(uint256)": {
        "details": "Returns the FT to the buyer address.",
        "params": {
          "_coin": "The amount of FT bought (FST token)."
        }
      },
      "buyTicket(uint256)": {
        "details": "Returns the NFT to the buyer address.",
        "params": {
          "_ticketPrice": "The price of the NFT."
        }
      },
      "cancelTrade(uint256)": {
        "details": "Cancels a trade by the poster.",
        "params": {
          "_trade": "The trade to be cancelled."
        }
      },
      "executeTrade(uint256)": {
        "details": "Executes a trade. Must have approved this contract to transfer the amount of currency specified to the poster. Transfers ownership of the NFT to the filler.",
        "params": {
          "_trade": "The id of the NFT trade"
        }
      },
      "getInfo()": {
        "details": "Returns the details of all the supply NFT."
      },
      "getTicketForSale()": {
        "details": "Returns the details of all tickets put in sale on the Secondary market."
      },
      "getTrade(uint256)": {
        "details": "Returns the details for a trade.",
        "params": {
          "_trade": "The id for the trade."
        }
      },
      "openTrade(uint256,uint256)": {
        "details": "Opens a new trade. Puts _item in escrow.",
        "params": {
          "_item": "The id for the NFT to trade.",
          "_price": "The amount of currency for which to trade the NFT."
        }
      }
    },
    "title": "Market"
  },
  "userdoc": {
    "methods": {},
    "notice": "Implements the Market board. The market is governed by an ERC20  currency token, and an ERC721 token that represents the ownership of the ticket (NFT) being bought or traded."
  }
}